:020000020000FC
:100000001FE51DBF14E01EBF1FEF1ABB1BBB11BBBA
:1000100017BB09D13CD0592F082F05D15038D9F042
:10002000503069F000950695003071F08DE2F5D002
:10003000102F13D082EBF1D083E4EFD0EBCF0695F5
:10004000003011F08BE2E9D0102F07D082EBE5D021
:1000500083E4E3D0DFCF68D0DDCF662733271436C3
:1000600010F0145661E01A3018F033951A50FBCF97
:10007000613019F0313024F406C080E3860FCDD012
:1000800080E3830FCAD080E3810FC7D008955FD08B
:100090008030C1F08CEC7AD084E478D081D080FFBD
:1000A000FDCF55D0803071F08CEC70D08EEB6ED0DF
:1000B00062D0182F60D0982F812FD49ADC9890FDB1
:1000C0001A9502C090E880E018BB089580EF84BBC9
:1000D00085E044D1182F192B1030D1F3D9D0282F17
:1000E000220F220F220F220F85E038D1182F192B53
:1000F0001030D1F3CDD0280F85E030D1182F192B37
:100100001030D1F3C5D0082F000F000F000F000FE3
:1001100085E024D1182F192B1030D1F3B9D0922FAC
:10012000800F92FD8A9508958EE477D08FE475D084
:1001300080E273D084E471D085E46FD086E56DD021
:1001400089E46BD083E469D085E467D00895D49ABC
:10015000DC9880EE91E08BD0D498DC9884E690E037
:1001600086D089B38F938CE791E081D09F918827C7
:1001700094FF81E00895B8E0AA2712D0A69580FDEB
:1001800080E8A82BBA95C9F78A2F0895A82FB8E060
:100190008827A0FD81E017D0A695BA95C9F70895E4
:1001A000D49ADC9882E090E062D0D498DC988AE01F
:1001B00090E05DD08827CC9981E08F9381E390E037
:1001C00056D08F9108958F93D49ADC9882E090E076
:1001D0004ED08F9180FDDC9A80FFDC988AE390E01E
:1001E00046D0D498DC9881E090E041D008958F9378
:1001F00090B39F70807F890F82BB939A93988F9161
:100200008295807F890F82BB939A939808959298E4
:10021000EEDF87E290E02BD00895929AE8DF8BE240
:1002200090E025D0089588E290E028D080E382BB5A
:10023000939A939887E290E01AD080E382BB939AD6
:10024000939887E290E013D080E282BB939A9398D0
:1002500087E290E00CD088E2DADF8CE0D8DF81E042
:10026000D6DF8AEF95E003D086E0D1DF08950197CD
:100270000000000000000000D1F708958F939F93C5
:1002800086EE93E0F4DF9F918F910197B9F708957F
:10029000DC018EE0A0FD089580E0A1FD08958FE0CF
:1002A000A2FD08958DE0A3FD089587E0A4FD0895C3
:1002B00088E0A5FD089589E0A6FD08958CE0A7FDDE
:1002C000089584E0B0FD089585E0B1FD089586E0CD
:1002D000B2FD08958BE0B3FD089581E0B4FD08956B
:1002E00082E0B5FD089583E0B6FD08958AE0B7FD8C
:1002F000089588270895DC0185E4A0FD089580E332
:10030000A1FD089586E4A2FD089584E4A3FD089567
:1003100087E3A4FD089588E3A5FD089589E3A6FD7C
:10032000089583E4A7FD089584E3B0FD089585E36F
:10033000B1FD089586E3B2FD089582E4B3FD08950A
:1003400081E3B4FD089582E3B5FD089583E3B6FD2E
:10035000089581E4B7FD089588270895682F15D082
:100360008F939F93862F90E089DF0FD07F916F91BD
:1003700086239723A0E6B0E07D916C918C939E93A9
:100380007095609586239723089581E00ED082951D
:10039000B82F82E00AD0B80F83E007D08295A82F4B
:1003A00084E003D0A80FCD01089598E0990F8A95B5
:0E03B000E9F795BB0000000083B38F7008953D
:00000001FF
