:020000020000FC
:100000001FE51DBF14E01EBF1FEF1ABB17BB1BBBB4
:1000100001D0FECF1ED08030C1F08CEC39D084E40A
:1000200037D040D080FFFDCF14D0803071F08CEC01
:100030002FD08EEB2DD021D0182F1FD0982F812FAD
:10004000D49ADC9890FD1A9502C090E880E018BB25
:100050000895D49ADC9880EE91E04BD0D498DC9847
:1000600084E690E046D089B38F938CE791E041D04D
:100070009F91882794FF81E00895B8E0AA2712D0C5
:10008000A69580FD80E8A82BBA95C9F78A2F089518
:10009000A82FB8E08827A0FD81E017D0A695BA95D3
:1000A000C9F70895D49ADC9882E090E022D0D498E1
:1000B000DC988AE090E01DD08827CC9981E08F936E
:1000C00081E390E016D08F9108958F93D49ADC98B5
:1000D00082E090E00ED08F9180FDDC9A80FFDC986A
:1000E0008AE390E006D0D498DC9881E090E001D0DB
:1000F000089501970000000000000000D1F7089566
:100100008F939F9386EE93E0F4DF9F918F910197F9
:04011000B9F708959E
:00000001FF
